:100000000C945E000C9486000C9486000C94860080
:100010000C9486000C9486000C9486000C94860048
:100020000C9486000C9486000C9486000C94860038
:100030000C9486000C9486000C9486000C94860028
:100040000C9402040C9486000C9472040C944C04DE
:100050000C9486000C9486000C9486000C94860008
:100060000C9486000C948600000000080002010039
:100070000003040700000000000000000000000072
:10008000250028002B0000000000240027002A0083
:10009000040404040404040402020202020203032E
:1000A0000303030301020408102040800102040836
:1000B0001020010204081020A404170711241FBEF9
:1000C000CFEFD8E0DEBFCDBF22E0A2E1B2E001C0B9
:1000D0001D92AC3DB207E1F712E0A0E0B1E0EAEC1E
:1000E000F2E102C005900D92A231B107D9F710E0FC
:1000F000CDE5D0E004C02197FE010E945707CC3522
:10010000D107C9F70E9445050C9458090C940000CA
:1001100090E0FC01EC55FF4F249180579F4FFC016C
:100120008491882399F090E0880F991FFC01EA5789
:10013000FF4FA591B491FC01E458FF4F8591949134
:100140008FB7F894EC91E22BEC938FBF089590E079
:10015000FC01E859FF4F2491FC01EC55FF4F34910D
:10016000FC01E057FF4FE491EE23C9F0222339F060
:10017000233001F1A8F4213019F1223029F1F0E007
:10018000EE0FFF1FE458FF4FA591B4918FB7F8947D
:10019000EC91611126C030953E233C938FBF0895AA
:1001A0002730A9F02830C9F0243049F78091800029
:1001B0008F7D03C0809180008F7780938000DFCF98
:1001C00084B58F7784BDDBCF84B58F7DFBCF8091E5
:1001D000B0008F778093B000D2CF8091B0008F7D38
:1001E000F9CF3E2BDACF3FB7F89480911902909166
:1001F0001A02A0911B02B0911C0226B5A89B05C053
:100200002F3F19F00196A11DB11D3FBFBA2FA92F95
:10021000982F8827BC01CD01620F711D811D911D92
:1002200042E0660F771F881F991F4A95D1F70895FE
:100230008F929F92AF92BF92CF92DF92EF92FF92F6
:100240006B017C010E94F3004B015C01C114D104DD
:10025000E104F104B9F00E94F300681979098A09F0
:100260009B09683E73408105910580F321E0C21A25
:10027000D108E108F10888EE880E83E0981EA11CE1
:10028000B11CE4CFFF90EF90DF90CF90BF90AF9084
:100290009F908F900895AF92BF92CF92DF92EF928E
:1002A000FF920F931F93CF93DF936C017B018B0120
:1002B000040F151FEB015E01AE18BF08C017D10770
:1002C00059F06991D601ED91FC910190F081E02DFA
:1002D000C6010995892B79F7C501DF91CF911F914F
:1002E0000F91FF90EF90DF90CF90BF90AF90089567
:1002F000FC01538D448D252F30E0842F90E0821B2C
:10030000930B541710F0CF96089501970895FC01B0
:10031000918D828D981761F0A28DAE0FBF2FB11D08
:100320005D968C91928D9F5F9F73928F90E0089560
:100330008FEF9FEF0895FC01918D828D981731F01A
:10034000828DE80FF11D858D90E008958FEF9FEF6E
:100350000895FC01918D228D892F90E0805C9F4F44
:10036000821B91098F73992708958DE192E00E9475
:10037000A90121E0892B09F420E0822F089580E073
:1003800090E0892B29F00E94B50181110C940000A6
:100390000895FC01A48DA80FB92FB11DA35ABF4F1A
:1003A0002C91848D90E001968F739927848FA68974
:1003B000B7892C93A089B1898C91837080648C93C8
:1003C000938D848D981306C00288F389E02D808177
:1003D0008F7D80830895EF92FF920F931F93CF93A9
:1003E000DF93EC0181E0888F9B8D8C8D98131AC070
:1003F000E889F989808185FF15C09FB7F894EE8957
:10040000FF896083E889F9898081837080648083B3
:100410009FBF81E090E0DF91CF911F910F91FF90FE
:10042000EF900895F62E0B8D10E00F5F1F4F0F73A6
:100430001127E02E8C8D8E110CC00FB607FCFACF61
:10044000E889F989808185FFF5CFCE010E94C90135
:10045000F1CFEB8DEC0FFD2FF11DE35AFF4FF08232
:100460009FB7F8940B8FEA89FB8980818062CFCF98
:10047000CF93DF93EC01888D8823B9F0AA89BB89DB
:10048000E889F9898C9185FD03C0808186FD0DC0C6
:100490000FB607FCF7CF8C9185FFF2CF808185FFE7
:1004A000EDCFCE010E94C901E9CFDF91CF91089530
:1004B000089590E080E00895CF93DF93EC0160E031
:1004C0008E810E94A70061E08E810E94A70060E0FB
:1004D0008E810E94A7008BE891E00197F1F7DF91F0
:1004E000CF910895CF92DF92EF92FF920F931F93D7
:1004F000CF93DF936C017C0187E0E80EF11CD0E024
:10050000C0E0062F10E0B8010C2E02C0759567956B
:100510000A94E2F76170F70181917F010E94A700C0
:100520002196C430D10579F7C601DF91CF911F9193
:100530000F91FF90EF90DF90CF900C945C02CF92E0
:10054000DF92EF92FF920F931F93CF93DF93EC0113
:10055000F62E642F8C810E94A7008D818F3F19F0A9
:1005600060E00E94A7000F2D10E08F8584FF25C05A
:100570006E0187E0C80ED11CF12CE12CB8010E2CC5
:1005800002C0759567950A94E2F76170F601819152
:100590006F010E94A700FFEFEF1AFF0A88E0E8163C
:1005A000F10461F7CE01DF91CF911F910F91FF9080
:1005B000EF90DF90CF900C945C02B80184E07595C9
:1005C00067958A95E1F7CE010E9472026F2DCE01E8
:1005D000DF91CF911F910F91FF90EF90DF90CF901F
:1005E0000C94720240E0682F80EC92E00C949F0221
:1005F000CF93DF93613029F09091CF029860909370
:10060000CF026093D3021092D40290E49093D5026B
:100610008093D602805C8093D7028091C4020E94AE
:1006200088008091C5028F3F11F00E948800809160
:10063000C6020E948800C0ECD2E09E01205C3240DD
:100640008091CF0284FD0AC084E090E021962817B3
:1006500039073CF48E810E948800EFCF88E090E05B
:10066000F5CF8BE39DE00197F1F760E08091C40244
:100670000E94A70060E08091C6020E94A7008091BE
:10068000C5028F3F19F060E00E94A7008091CF0261
:1006900084FD39C063E080EC92E00E947202CBE4FA
:1006A000D6E4CE010197F1F763E080EC92E00E947E
:1006B00072022197F1F763E080EC92E00E947202EF
:1006C00083E592E00197F1F762E080EC92E00E940E
:1006D00072028091CF0280620E94F20284E08093D5
:1006E000D0028CE00E94F20281E00E94F2028BE3D1
:1006F0009FE10197F1F782E08093D10286E0DF91DC
:10070000CF910C94F20280620E94F2028BE496E494
:100710000197F1F78091CF0280620E94F20283E597
:1007200092E00197F1F78091CF0280620E94F2027D
:10073000D0CF9091D302891710F08FEF890FE82F57
:10074000F0E0E054FD4F848980680C94F20241E0AF
:100750000E949F0281E090E00895FB01019000203B
:10076000E9F73197AF01461B570BDC01ED91FC9186
:100770000280F381E02D0994BC0180EC92E00C949E
:10078000AD03CF93DF93BC018DE192E00E94AD03F6
:10079000EC0164E271E08DE192E00E94AD038C0F08
:1007A0009D1FDF91CF910895CF93DF93EC0180914E
:1007B000BA029091BB02009759F02091BC0230918F
:1007C000BD022C173D0720F081E0DF91CF91089505
:1007D000BE016F5F7F4F0E948208009789F090935F
:1007E000BB028093BA02D093BD02C093BC02209199
:1007F000BE023091BF02232B39F7FC011082E4CFF7
:1008000080E0E3CF1F920F920FB60F9211242F9327
:100810003F938F939F93AF93BF93809115029091D5
:100820001602A0911702B09118023091140223E031
:10083000230F2D3758F50196A11DB11D20931402E9
:100840008093150290931602A0931702B09318029A
:100850008091190290911A02A0911B02B0911C0282
:100860000196A11DB11D8093190290931A02A093C5
:100870001B02B0931C02BF91AF919F918F913F914A
:100880002F910F900FBE0F901F90189526E8230F01
:100890000296A11DB11DD2CF1F920F920FB60F92DB
:1008A00011242F933F934F935F936F937F938F9375
:1008B0009F93AF93BF93EF93FF938DE192E00E94DC
:1008C000C901FF91EF91BF91AF919F918F917F915E
:1008D0006F915F914F913F912F910F900FBE0F90AD
:1008E0001F9018951F920F920FB60F9211242F93FD
:1008F0008F939F93EF93FF93E0912D02F0912E023F
:100900008081E0913302F091340282FD1BC090811E
:10091000809136028F5F8F7320913702821741F0EA
:10092000E0913602F0E0E35EFD4F958F8093360252
:10093000FF91EF919F918F912F910F900FBE0F908C
:100940001F9018958081F4CF1092200210921F0200
:1009500088EE93E0A0E0B0E0809321029093220221
:10096000A0932302B09324028AE091E090931E02A8
:1009700080931D0285EC90E090932A0280932902D7
:1009800084EC90E090932C0280932B0280EC90E01A
:1009900090932E0280932D0281EC90E09093300290
:1009A00080932F0282EC90E0909332028093310288
:1009B00086EC90E0909334028093330210923602DA
:1009C0001092370210923802109239021092C3022C
:1009D0001092C2028CE191E09093C1028093C00218
:1009E0008DE08093C4028FEF8093C5028CE08093EA
:1009F000C6028BE08093C7028AE08093C80289E038
:100A00008093C90288E08093CA021092CB021092B0
:100A1000CC021092CD021092CE021092CF0261E071
:100A200080E10E94F8021092BB021092BA0210926A
:100A3000BD021092BC021092BF021092BE0290E062
:100A400080E00E94D4032091BA023091BB02811150
:100A500013C02115310519F0C9010E94F907109240
:100A6000BB021092BA021092BF021092BE02109204
:100A7000BD021092BC0208951092BF021092BE02F5
:100A800066E271E0C9010C945109CF93DF9300D065
:100A9000CDB7DEB7789484B5826084BD84B58160BB
:100AA00084BD85B5826085BD85B5816085BD809139
:100AB0006E00816080936E001092810080918100B1
:100AC00082608093810080918100816080938100A9
:100AD000809180008160809380008091B10084606B
:100AE0008093B1008091B00081608093B0008091CC
:100AF0007A00846080937A0080917A00826080938B
:100B00007A0080917A00816080937A0080917A00E7
:100B1000806880937A001092C100E0912D02F091DC
:100B20002E0282E08083E0912902F0912A02108255
:100B3000E0912B02F0912C028FEC80831092350211
:100B4000E0913102F091320286E08083E0912F0241
:100B5000F0913002808180618083E0912F02F091DA
:100B60003002808188608083E0912F02F091300212
:100B7000808180688083E0912F02F0913002808133
:100B80008F7D808385E00E94880086E00E94880037
:100B900087E00E94880087E291E00E94C10364E040
:100BA00084E10E94F80280E00E94990382E491E0CF
:100BB0000E94BC0381E00E94990385E591E00E94B8
:100BC000BC0382E00E9499038DE691E00E94BC0381
:100BD00083E00E94990384E791E00E94BC0380E0D7
:100BE000C82E80E0D82E8DE192E00E94A90118164F
:100BF00019060CF0E0C08DE192E00E94870100919F
:100C00001202109113020F5F1F4F109313020093F3
:100C1000120289831A82E090BE02F090BF028FEF29
:100C2000E81AF80AC7010E94D403882399F020919A
:100C3000BA023091BB028091BE029091BF02BE0108
:100C40006F5F7F4F820F931F0E945109F092BF0286
:100C5000E092BE020C30110531F64091BE02509177
:100C6000BF026091BA027091BB028DE192E00E94D6
:100C70004B018091BE029091BF02892B09F46EC096
:100C80000091BA021091BB026BE771E0C8010E94AB
:100C90004809892B99F588E891E00E94C10382E018
:100CA0000E94990383E991E00E94BC0383E00E94C3
:100CB000990380EA91E00E94BC0361E086E00E9413
:100CC000A70060ED77E080E090E00E94180160E00E
:100CD00086E00E94A70061E087E00E94A70082E012
:100CE0000E9499038DE691E00E94BC0383E00E947C
:100CF000990384E791E00E94BC0375CF6FEA71E02D
:100D0000C8010E944809892B89F488E891E00E9473
:100D1000C10382E00E94990383E991E00E94BC0331
:100D200083E00E9499038CEB91E0C5CF6AEC71E0FF
:100D3000C8010E944809892B89F488E891E00E9443
:100D4000C10382E00E94990383E991E00E94BC0301
:100D500083E00E94990387ED91E0ADCF86EE91E0AC
:100D60000E94C10382E00E94990383EF91E00E94F8
:100D7000BC0383E00E94990382E092E00E94BC03DE
:100D800061E085E00E94A70061E087E00E94A70083
:100D900064EF71E080E090E00E94180160E087E07D
:100DA0000E94A70060ED77E080E090E00E941801CB
:100DB00060E085E092CF109213021092120290E050
:100DC00080E00E94D4032091BA023091BB028111CD
:100DD00024C02115310519F0C9010E94F9071092AC
:100DE000BB021092BA021092BF021092BE02109281
:100DF000BD021092BC0264EF71E080E090E00E94BE
:100E00001801C114D10409F4EECE0E94B501882363
:100E100009F4E9CE0E940000E6CE1092BF021092C3
:100E2000BE0266E271E0C9010E945109E4CF8091DF
:100E3000BA029091BB02009711F00C94F907089543
:100E40002F923F924F925F926F927F928F929F92DA
:100E5000AF92BF92CF92DF92EF92FF920F931F93C8
:100E6000CF93DF93CDB7DEB7CA1BDB0B0FB6F89479
:100E7000DEBF0FBECDBF09942A88398848885F84B9
:100E80006E847D848C849B84AA84B984C884DF802A
:100E9000EE80FD800C811B81AA81B981CE0FD11D0E
:100EA0000FB6F894DEBF0FBECDBFED010895EE0F73
:100EB000FF1F0590F491E02D09940F931F93CF939A
:100EC000DF938230910510F482E090E0E091DA0245
:100ED000F091DB0230E020E0B0E0A0E0309799F440
:100EE0002115310509F44AC0281B390B243031057E
:100EF000D8F58A819B816115710589F1FB01938386
:100F00008283FE0111C04081518102811381481703
:100F10005907E0F04817590799F4109761F01296B5
:100F20000C93129713961C933296CF01DF91CF91B9
:100F30001F910F9108950093DA021093DB02F4CF12
:100F40002115310551F04217530738F0A901DB0193
:100F50009A01BD01DF01F801C1CFEF01F9CF9093F4
:100F6000DB028093DA02CDCFFE01E20FF31F819303
:100F700091932250310939832883D7CF2091D80209
:100F80003091D902232B41F42091020130910301C9
:100F90003093D9022093D8022091000130910101B1
:100FA0002115310541F42DB73EB740910401509110
:100FB0000501241B350BE091D802F091D902E2170C
:100FC000F307A0F42E1B3F0B2817390778F0AC016C
:100FD0004E5F5F4F2417350748F04E0F5F1F509349
:100FE000D9024093D802819391939FCFF0E0E0E043
:100FF0009CCFCF93DF930097E9F0FC0132971382E7
:101000001282A091DA02B091DB02ED0130E020E023
:101010001097A1F420813181820F931F2091D80273
:101020003091D9022817390709F061C0F093D9022D
:10103000E093D802DF91CF910895EA01CE17DF0740
:10104000E8F54A815B819E0141155105B1F7E9013F
:10105000FB83EA8349915991C40FD51FEC17FD0713
:1010600061F4808191810296840F951FE901998333
:101070008883828193819B838A83F0E0E0E01296EB
:101080008D919C9113970097B9F52D913C911197F3
:10109000CD010296820F931F2091D8023091D90280
:1010A0002817390739F6309751F51092DB02109264
:1010B000DA02B093D902A093D802BCCFD383C28303
:1010C00040815181840F951FC817D90761F44E5F85
:1010D0005F4F88819981480F591F518340838A81CE
:1010E0009B81938382832115310509F0B0CFF09362
:1010F000DB02E093DA029ECFFD01DC01C0CF138258
:101100001282D7CFB0E0A0E0E8E8F8E00C94220724
:101110008C01009751F4CB010E945D078C01C8013E
:10112000CDB7DEB7E0E10C943E07FC01E60FF71FF8
:101130009C0122503109E217F30708F49DC0D90140
:10114000CD91DC911197C617D70798F0C530D1051E
:1011500030F3CE0104978617970708F3C61BD70B09
:101160002297C193D1936D937C93CF010E94F9078D
:10117000D6CF5B01AC1ABD0A4C018C0E9D1EA0910E
:10118000DA02B091DB02512C412CF12CE12C1097AA
:1011900031F58091D8029091D9028815990509F00E
:1011A0005CC04616570608F058C080910001909127
:1011B0000101009741F48DB79EB740910401509111
:1011C0000501841B950BE817F90708F055C0F0934B
:1011D000D902E093D802F90171836083A0CF8D9189
:1011E0009C91119712966C90129713967C9013977E
:1011F000A815B90559F56C0142E0C40ED11CCA14FA
:10120000DB0420F1AC014A195B09DA01129615974B
:1012100080F06282738251834083D9016D937C9305
:10122000E114F10471F0D7011396FC93EE93129739
:1012300076CF22968C0F9D1FF90191838083F30155
:10124000EFCFF093DB02E093DA0269CF481659063C
:1012500008F42C017D01D3019ACFCB010E945D07D8
:101260007C01009749F0AE01B8010E943F09C80116
:101270000E94F907870153CF10E000E050CFFB0137
:10128000DC0102C001900D9241505040D8F7089502
:10129000FB01DC018D91019080190110D9F3990BAC
:1012A0000895FB01DC0101900D920020E1F7089503
:1012B00010E0CDE5D0E004C0FE010E945707219662
:0A12C000CE35D107C9F7F894FFCF2F
:1012CA000000DC02800000000000EB014B01780105
:1012DA003802A90187019B0100000000A7034B0106
:1012EA00590258020D0A00506C65617365205363F8
:1012FA00616E20796F7572205246494420436172AB
:10130A00640020544845205052415448414D2053CE
:10131A004F4C5554002052464944204241534544BB
:10132A00204C4F434B2053595354454D00204341C1
:10133A0052443A00204E414D453A004541525448E4
:10134A0034303839353631005661696C642043616E
:10135A0072640020434152443A205641494C4400A9
:10136A00204E414D453A205052415448414D004685
:10137A00495245343039353738393400204E414DD9
:10138A00453A205072616E61760057415445523495
:10139A0030383939373400204E414D453A205072A1
:1013AA00617465656B00496E7661696C642043619E
:1013BA0072640020434152443A20494E5641494CF6
:1013CA004400204E414D453A20554E4B4E4F574E04
:0213DA00000011
:00000001FF
