:020000040000FA
:100000000C945E000C9486000C9486000C94860080
:100010000C9486000C9486000C9486000C94860048
:100020000C9486000C9486000C9486000C94860038
:100030000C9486000C9486000C9486000C94860028
:100040000C9402040C9486000C9472040C944C04DE
:100050000C9486000C9486000C9486000C94860008
:100060000C9486000C948600000000080002010039
:100070000003040700000000000000000000000072
:10008000250028002B0000000000240027002A0083
:10009000040404040404040402020202020203032E
:1000A0000303030301020408102040800102040836
:1000B0001020010204081020A404170711241FBEF9
:1000C000CFEFD8E0DEBFCDBF22E0AEE0B2E001C0AE
:1000D0001D92A83DB207E1F712E0A0E0B1E0EAEC22
:1000E000F2E102C005900D92AE30B107D9F710E0F1
:1000F000CDE5D0E004C02197FE010E945707CC3522
:10010000D107C9F70E9445050C9458090C940000CA
:1001100090E0FC01EC55FF4F249180579F4FFC016C
:100120008491882399F090E0880F991FFC01EA5789
:10013000FF4FA591B491FC01E458FF4F8591949134
:100140008FB7F894EC91E22BEC938FBF089590E079
:10015000FC01E859FF4F2491FC01EC55FF4F34910D
:10016000FC01E057FF4FE491EE23C9F0222339F060
:10017000233001F1A8F4213019F1223029F1F0E007
:10018000EE0FFF1FE458FF4FA591B4918FB7F8947D
:10019000EC91611126C030953E233C938FBF0895AA
:1001A0002730A9F02830C9F0243049F78091800029
:1001B0008F7D03C0809180008F7780938000DFCF98
:1001C00084B58F7784BDDBCF84B58F7DFBCF8091E5
:1001D000B0008F778093B000D2CF8091B0008F7D38
:1001E000F9CF3E2BDACF3FB7F8948091150290916A
:1001F0001602A0911702B091180226B5A89B05C05F
:100200002F3F19F00196A11DB11D3FBFBA2FA92F95
:10021000982F8827BC01CD01620F711D811D911D92
:1002200042E0660F771F881F991F4A95D1F70895FE
:100230008F929F92AF92BF92CF92DF92EF92FF92F6
:100240006B017C010E94F3004B015C01C114D104DD
:10025000E104F104B9F00E94F300681979098A09F0
:100260009B09683E73408105910580F321E0C21A25
:10027000D108E108F10888EE880E83E0981EA11CE1
:10028000B11CE4CFFF90EF90DF90CF90BF90AF9084
:100290009F908F900895AF92BF92CF92DF92EF928E
:1002A000FF920F931F93CF93DF936C017B018B0120
:1002B000040F151FEB015E01AE18BF08C017D10770
:1002C00059F06991D601ED91FC910190F081E02DFA
:1002D000C6010995892B79F7C501DF91CF911F914F
:1002E0000F91FF90EF90DF90CF90BF90AF90089567
:1002F000FC01538D448D252F30E0842F90E0821B2C
:10030000930B541710F0CF96089501970895FC01B0
:10031000918D828D981761F0A28DAE0FBF2FB11D08
:100320005D968C91928D9F5F9F73928F90E0089560
:100330008FEF9FEF0895FC01918D828D981731F01A
:10034000828DE80FF11D858D90E008958FEF9FEF6E
:100350000895FC01918D228D892F90E0805C9F4F44
:10036000821B91098F739927089589E192E00E9479
:10037000A90121E0892B09F420E0822F089580E073
:1003800090E0892B29F00E94B50181110C940000A6
:100390000895FC01A48DA80FB92FB11DA35ABF4F1A
:1003A0002C91848D90E001968F739927848FA68974
:1003B000B7892C93A089B1898C91837080648C93C8
:1003C000938D848D981306C00288F389E02D808177
:1003D0008F7D80830895EF92FF920F931F93CF93A9
:1003E000DF93EC0181E0888F9B8D8C8D98131AC070
:1003F000E889F989808185FF15C09FB7F894EE8957
:10040000FF896083E889F9898081837080648083B3
:100410009FBF81E090E0DF91CF911F910F91FF90FE
:10042000EF900895F62E0B8D10E00F5F1F4F0F73A6
:100430001127E02E8C8D8E110CC00FB607FCFACF61
:10044000E889F989808185FFF5CFCE010E94C90135
:10045000F1CFEB8DEC0FFD2FF11DE35AFF4FF08232
:100460009FB7F8940B8FEA89FB8980818062CFCF98
:10047000CF93DF93EC01888D8823B9F0AA89BB89DB
:10048000E889F9898C9185FD03C0808186FD0DC0C6
:100490000FB607FCF7CF8C9185FFF2CF808185FFE7
:1004A000EDCFCE010E94C901E9CFDF91CF91089530
:1004B000089590E080E00895CF93DF93EC0160E031
:1004C0008E810E94A70061E08E810E94A70060E0FB
:1004D0008E810E94A7008BE891E00197F1F7DF91F0
:1004E000CF910895CF92DF92EF92FF920F931F93D7
:1004F000CF93DF936C017C0187E0E80EF11CD0E024
:10050000C0E0062F10E0B8010C2E02C0759567956B
:100510000A94E2F76170F70181917F010E94A700C0
:100520002196C430D10579F7C601DF91CF911F9193
:100530000F91FF90EF90DF90CF900C945C02CF92E0
:10054000DF92EF92FF920F931F93CF93DF93EC0113
:10055000F62E642F8C810E94A7008D818F3F19F0A9
:1005600060E00E94A7000F2D10E08F8584FF25C05A
:100570006E0187E0C80ED11CF12CE12CB8010E2CC5
:1005800002C0759567950A94E2F76170F601819152
:100590006F010E94A700FFEFEF1AFF0A88E0E8163C
:1005A000F10461F7CE01DF91CF911F910F91FF9080
:1005B000EF90DF90CF900C945C02B80184E07595C9
:1005C00067958A95E1F7CE010E9472026F2DCE01E8
:1005D000DF91CF911F910F91FF90EF90DF90CF901F
:1005E0000C94720240E0682F8CEB92E00C949F0216
:1005F000CF93DF93613029F09091CB029860909374
:10060000CB026093CF021092D00290E49093D1027B
:100610008093D202805C8093D3028091C0020E94BA
:1006200088008091C1028F3F11F00E948800809164
:10063000C2020E948800CCEBD2E09E012C5B3240CB
:100640008091CB0284FD0AC084E090E021962817B7
:1006500039073CF48E810E948800EFCF88E090E05B
:10066000F5CF8BE39DE00197F1F760E08091C00248
:100670000E94A70060E08091C2020E94A7008091C2
:10068000C1028F3F19F060E00E94A7008091CB0269
:1006900084FD39C063E08CEB92E00E947202CBE4EF
:1006A000D6E4CE010197F1F763E08CEB92E00E9473
:1006B00072022197F1F763E08CEB92E00E947202E4
:1006C00083E592E00197F1F762E08CEB92E00E9403
:1006D00072028091CB0280620E94F20284E08093D9
:1006E000CC028CE00E94F20281E00E94F2028BE3D5
:1006F0009FE10197F1F782E08093CD0286E0DF91E0
:10070000CF910C94F20280620E94F2028BE496E494
:100710000197F1F78091CB0280620E94F20283E59B
:1007200092E00197F1F78091CB0280620E94F20281
:10073000D0CF9091CF02891710F08FEF890FE82F5B
:10074000F0E0E454FD4F848980680C94F20241E0AB
:100750000E949F0281E090E00895FB01019000203B
:10076000E9F73197AF01461B570BDC01ED91FC9186
:100770000280F381E02D0994BC018CEB92E00C9493
:10078000AD03CF93DF93BC0189E192E00E94AD03FA
:10079000EC0164E271E089E192E00E94AD038C0F0C
:1007A0009D1FDF91CF910895CF93DF93EC0180914E
:1007B000B6029091B702009759F02091B80230919B
:1007C000B9022C173D0720F081E0DF91CF91089509
:1007D000BE016F5F7F4F0E948208009789F090935F
:1007E000B7028093B602D093B902C093B8022091A9
:1007F000BA023091BB02232B39F7FC011082E4CFFF
:1008000080E0E3CF1F920F920FB60F9211242F9327
:100810003F938F939F93AF93BF93809111029091D9
:100820001202A0911302B09114023091100223E041
:10083000230F2D3758F50196A11DB11D20931002ED
:100840008093110290931202A0931302B0931402AA
:100850008091150290911602A0911702B091180292
:100860000196A11DB11D8093150290931602A093CD
:100870001702B0931802BF91AF919F918F913F9152
:100880002F910F900FBE0F901F90189526E8230F01
:100890000296A11DB11DD2CF1F920F920FB60F92DB
:1008A00011242F933F934F935F936F937F938F9375
:1008B0009F93AF93BF93EF93FF9389E192E00E94E0
:1008C000C901FF91EF91BF91AF919F918F917F915E
:1008D0006F915F914F913F912F910F900FBE0F90AD
:1008E0001F9018951F920F920FB60F9211242F93FD
:1008F0008F939F93EF93FF93E0912902F0912A0247
:100900008081E0912F02F091300282FD1BC0908126
:10091000809132028F5F8F7320913302821741F0F2
:10092000E0913202F0E0E75EFD4F958F8093320256
:10093000FF91EF919F918F912F910F900FBE0F908C
:100940001F9018958081F4CF10921C0210921B0208
:1009500088EE93E0A0E0B0E080931D0290931E0229
:10096000A0931F02B09320028AE091E090931A02B4
:100970008093190285EC90E09093260280932502E3
:1009800084EC90E0909328028093270280EC90E022
:1009900090932A028093290281EC90E090932C029C
:1009A00080932B0282EC90E090932E0280932D0294
:1009B00086EC90E09093300280932F0210923202E6
:1009C0001092330210923402109235021092BF023C
:1009D0001092BE028CE191E09093BD028093BC0224
:1009E0008DE08093C0028FEF8093C1028CE08093F2
:1009F000C2028BE08093C3028AE08093C40289E044
:100A00008093C50288E08093C6021092C7021092BC
:100A1000C8021092C9021092CA021092CB0261E081
:100A200080E10E94F8021092B7021092B602109272
:100A3000B9021092B8021092BB021092BA0290E072
:100A400080E00E94D4032091B6023091B702811158
:100A500013C02115310519F0C9010E94F907109240
:100A6000B7021092B6021092BB021092BA02109214
:100A7000B9021092B80208951092BB021092BA0205
:100A800066E271E0C9010C945109CF93DF9300D065
:100A9000CDB7DEB7789484B5826084BD84B58160BB
:100AA00084BD85B5826085BD85B5816085BD809139
:100AB0006E00816080936E001092810080918100B1
:100AC00082608093810080918100816080938100A9
:100AD000809180008160809380008091B10084606B
:100AE0008093B1008091B00081608093B0008091CC
:100AF0007A00846080937A0080917A00826080938B
:100B00007A0080917A00816080937A0080917A00E7
:100B1000806880937A001092C100E0912902F091E0
:100B20002A0282E08083E0912502F0912602108261
:100B3000E0912702F09128028FEC8083109231021D
:100B4000E0912D02F0912E0286E08083E0912B024D
:100B5000F0912C02808180618083E0912B02F091E2
:100B60002C02808188608083E0912B02F0912C021E
:100B7000808180688083E0912B02F0912C0280813B
:100B80008F7D808385E00E94880086E00E94880037
:100B900087E00E94880087E291E00E94C10364E040
:100BA00084E10E94F80280E00E94990382E491E0CF
:100BB0000E94BC0381E00E94990382E591E00E94BB
:100BC000BC0382E00E9499038AE691E00E94BC0384
:100BD00083E00E94990381E791E00E94BC0380E0DA
:100BE000C82E80E0D82E89E192E00E94A901181653
:100BF00019060CF0E0C089E192E00E9487010091A3
:100C00000E0210910F020F5F1F4F10930F020093FF
:100C10000E0289831A82E090BA02F090BB028FEF35
:100C2000E81AF80AC7010E94D403882399F020919A
:100C3000B6023091B7028091BA029091BB02BE0118
:100C40006F5F7F4F820F931F0E945109F092BB028A
:100C5000E092BA020C30110531F64091BA0250917F
:100C6000BB026091B6027091B70289E192E00E94E6
:100C70004B018091BA029091BB02892B09F46EC09E
:100C80000091B6021091B70268E771E0C8010E94B6
:100C90004809892B99F585E891E00E94C10382E01B
:100CA0000E94990380E991E00E94BC0383E00E94C6
:100CB00099038DE991E00E94BC0361E086E00E9407
:100CC000A70060ED77E080E090E00E94180160E00E
:100CD00086E00E94A70061E087E00E94A70082E012
:100CE0000E9499038AE691E00E94BC0383E00E947F
:100CF000990381E791E00E94BC0375CF6CEA71E033
:100D0000C8010E944809892B89F485E891E00E9476
:100D1000C10382E00E94990380E991E00E94BC0334
:100D200083E00E94990389EB91E0C5CF67EC71E005
:100D3000C8010E944809892B89F485E891E00E9446
:100D4000C10382E00E94990380E991E00E94BC0304
:100D500083E00E94990384ED91E0ADCF83EE91E0B2
:100D60000E94C10382E00E94990380EF91E00E94FB
:100D7000BC0383E00E9499038FEF91E00E94BC03C3
:100D800061E085E00E94A70061E087E00E94A70083
:100D900064EF71E080E090E00E94180160E087E07D
:100DA0000E94A70060ED77E080E090E00E941801CB
:100DB00060E085E092CF10920F0210920E0290E058
:100DC00080E00E94D4032091B6023091B7028111D5
:100DD00024C02115310519F0C9010E94F9071092AC
:100DE000B7021092B6021092BB021092BA02109291
:100DF000B9021092B80264EF71E080E090E00E94C6
:100E00001801C114D10409F4EECE0E94B501882363
:100E100009F4E9CE0E940000E6CE1092BB021092C7
:100E2000BA0266E271E0C9010E945109E4CF8091E3
:100E3000B6029091B702009711F00C94F90708954B
:100E40002F923F924F925F926F927F928F929F92DA
:100E5000AF92BF92CF92DF92EF92FF920F931F93C8
:100E6000CF93DF93CDB7DEB7CA1BDB0B0FB6F89479
:100E7000DEBF0FBECDBF09942A88398848885F84B9
:100E80006E847D848C849B84AA84B984C884DF802A
:100E9000EE80FD800C811B81AA81B981CE0FD11D0E
:100EA0000FB6F894DEBF0FBECDBFED010895EE0F73
:100EB000FF1F0590F491E02D09940F931F93CF939A
:100EC000DF938230910510F482E090E0E091D60249
:100ED000F091D70230E020E0B0E0A0E0309799F444
:100EE0002115310509F44AC0281B390B243031057E
:100EF000D8F58A819B816115710589F1FB01938386
:100F00008283FE0111C04081518102811381481703
:100F10005907E0F04817590799F4109761F01296B5
:100F20000C93129713961C933296CF01DF91CF91B9
:100F30001F910F9108950093D6021093D702F4CF1A
:100F40002115310551F04217530738F0A901DB0193
:100F50009A01BD01DF01F801C1CFEF01F9CF9093F4
:100F6000D7028093D602CDCFFE01E20FF31F81930B
:100F700091932250310939832883D7CF2091D4020D
:100F80003091D502232B41F42091020130910301CD
:100F90003093D5022093D4022091000130910101B9
:100FA0002115310541F42DB73EB740910401509110
:100FB0000501241B350BE091D402F091D502E21714
:100FC000F307A0F42E1B3F0B2817390778F0AC016C
:100FD0004E5F5F4F2417350748F04E0F5F1F509349
:100FE000D5024093D402819391939FCFF0E0E0E04B
:100FF0009CCFCF93DF930097E9F0FC0132971382E7
:101000001282A091D602B091D702ED0130E020E02B
:101010001097A1F420813181820F931F2091D40277
:101020003091D5022817390709F061C0F093D50235
:10103000E093D402DF91CF910895EA01CE17DF0744
:10104000E8F54A815B819E0141155105B1F7E9013F
:10105000FB83EA8349915991C40FD51FEC17FD0713
:1010600061F4808191810296840F951FE901998333
:101070008883828193819B838A83F0E0E0E01296EB
:101080008D919C9113970097B9F52D913C911197F3
:10109000CD010296820F931F2091D4023091D50288
:1010A0002817390739F6309751F51092D702109268
:1010B000D602B093D502A093D402BCCFD383C2830F
:1010C00040815181840F951FC817D90761F44E5F85
:1010D0005F4F88819981480F591F518340838A81CE
:1010E0009B81938382832115310509F0B0CFF09362
:1010F000D702E093D6029ECFFD01DC01C0CF138260
:101100001282D7CFB0E0A0E0E8E8F8E00C94220724
:101110008C01009751F4CB010E945D078C01C8013E
:10112000CDB7DEB7E0E10C943E07FC01E60FF71FF8
:101130009C0122503109E217F30708F49DC0D90140
:10114000CD91DC911197C617D70798F0C530D1051E
:1011500030F3CE0104978617970708F3C61BD70B09
:101160002297C193D1936D937C93CF010E94F9078D
:10117000D6CF5B01AC1ABD0A4C018C0E9D1EA0910E
:10118000D602B091D702512C412CF12CE12C1097B2
:1011900031F58091D4029091D5028815990509F016
:1011A0005CC04616570608F058C080910001909127
:1011B0000101009741F48DB79EB740910401509111
:1011C0000501841B950BE817F90708F055C0F0934B
:1011D000D502E093D402F90171836083A0CF8D9191
:1011E0009C91119712966C90129713967C9013977E
:1011F000A815B90559F56C0142E0C40ED11CCA14FA
:10120000DB0420F1AC014A195B09DA01129615974B
:1012100080F06282738251834083D9016D937C9305
:10122000E114F10471F0D7011396FC93EE93129739
:1012300076CF22968C0F9D1FF90191838083F30155
:10124000EFCFF093D702E093D60269CF4816590644
:1012500008F42C017D01D3019ACFCB010E945D07D8
:101260007C01009749F0AE01B8010E943F09C80116
:101270000E94F907870153CF10E000E050CFFB0137
:10128000DC0102C001900D9241505040D8F7089502
:10129000FB01DC018D91019080190110D9F3990BAC
:1012A0000895FB01DC0101900D920020E1F7089503
:1012B00010E0CDE5D0E004C0FE010E945707219662
:1012C000CE35D107C9F7F894FFCF0000D8028000CF
:1012D00000000000EB014B0178013802A9018701F1
:1012E0009B0100000000A7034B01590258020D0AA0
:1012F00000506C65617365205363616E20796F7572
:10130000722052464944204361726400205448458B
:1013100020534F4C5554494F4E53200020524649BC
:1013200044204241534544204C4F434B2053595392
:1013300054454D0020434152443A00204E414D4512
:101340003A00454152544834303839353631005628
:1013500061696C6420436172640020434152443AE5
:10136000205641494C4400204E414D453A205052B0
:10137000415448414D00464952453430393537389B
:10138000393400204E414D453A205072616E6176ED
:101390000057415445523430383939373400204EE3
:1013A000414D453A205072617465656B00496E7617
:1013B00061696C6420436172640020434152443A85
:1013C00020494E5641494C4400204E414D453A205B
:0813D000554E4B4E4F574E00E5
:107E0000112484B714BE81FFF0D085E080938100F7
:107E100082E08093C00088E18093C10086E0809377
:107E2000C20080E18093C4008EE0C9D0259A86E02C
:107E300020E33CEF91E0309385002093840096BBD3
:107E4000B09BFECF1D9AA8958150A9F7CC24DD24C4
:107E500088248394B5E0AB2EA1E19A2EF3E0BF2EE7
:107E6000A2D0813461F49FD0082FAFD0023811F036
:107E7000013811F484E001C083E08DD089C08234E0
:107E800011F484E103C0853419F485E0A6D080C0E4
:107E9000853579F488D0E82EFF2485D0082F10E0AE
:107EA000102F00270E291F29000F111F8ED06801E7
:107EB0006FC0863521F484E090D080E0DECF843638
:107EC00009F040C070D06FD0082F6DD080E0C81688
:107ED00080E7D80618F4F601B7BEE895C0E0D1E017
:107EE00062D089930C17E1F7F0E0CF16F0E7DF06D8
:107EF00018F0F601B7BEE89568D007B600FCFDCFD4
:107F0000A601A0E0B1E02C9130E011968C91119780
:107F100090E0982F8827822B932B1296FA010C0160
:107F200087BEE89511244E5F5F4FF1E0A038BF0790
:107F300051F7F601A7BEE89507B600FCFDCF97BE46
:107F4000E89526C08437B1F42ED02DD0F82E2BD052
:107F50003CD0F601EF2C8F010F5F1F4F84911BD097
:107F6000EA94F801C1F70894C11CD11CFA94CF0C13
:107F7000D11C0EC0853739F428D08EE10CD085E9AC
:107F80000AD08FE07ACF813511F488E018D01DD067
:107F900080E101D065CF982F8091C00085FFFCCF94
:107FA0009093C60008958091C00087FFFCCF809118
:107FB000C00084FD01C0A8958091C6000895E0E648
:107FC000F0E098E1908380830895EDDF803219F02E
:107FD00088E0F5DFFFCF84E1DECF1F93182FE3DFCA
:107FE0001150E9F7F2DF1F91089580E0E8DFEE27F6
:047FF000FF270994CA
:027FFE00040479
:00000001FF
